:1000000014C06DC061C051C008C069D08E708A3004
:1000100059F488ED84BF90934100DC0181E645D01E
:100020004BD08D936A95E1F752C08AE080B983E0A6
:1000300084B985B9C2EED0E845D0C83FE9F798ED5C
:1000400094BFF09300018E3061F480E342D08AE2E5
:1000500040D08BE23ED036D000904000009240006D
:1000600003FC4EC0B8E370E0ED0139D08E50EDF7DF
:10007000A89560E2D3DF715071F0B8F78881885895
:100080008981894979F78A81AB81BC817D818634F8
:1000900059F338F77C93F0E183E09DE994BF8083C6
:1000A00082818370E9F7DECF8D91E0E0F8E094E0A3
:1000B00091A391E390A3289884A383A187FFFDCF08
:1000C00084A1089589916991F0DF862FF5DF289A40
:1000D0000895B3E1A0E0E9DFE7DFE6DFE5DF87E0F1
:1000E000F3CF2000213F2301254C260E3C3F222048
:1000F0002F503D04247F0600207F000000000000F8
:06010000A89583DFFDCF8E
:02000004008179
:050000005445535400BB
:02000004008278
:09000000000002FF00C40400012D
:02000004008575
:04000000303031006B
:00000001FF
