:100000000DC06CC060C050C050C060C067D08E7062
:100010008A30D9F788ED84BF90934100209A289ABE
:10002000209A289A219A299A019A039AC0EED0E838
:1000300048D0C83FE9F798ED94BFF09300018E30A7
:1000400061F480E345D08AE243D08BE241D039D0DD
:10005000009040000092400003FC52C0D8E370E0E2
:100060003DD08E708E30E1F3A89581E61DD000E280
:100070001CD089930A95E1F7289A715059F080F7BE
:10008000A0977D818A819B81DC81C92F863441F3D1
:1000900020F77883F0E183E00DE904BF808382815B
:1000A0008370E9F7DBCF8D912898E0E0F8E094E0E9
:1000B00091A391E390A384A383A187FFFDCF84A1A3
:1000C000089589916991F0DF862FEFDF289A0895CE
:1000D000B3E1A0E0E9DFE7DFE6DFE5DF87E0F3CFCC
:1000E0002000213F2301254C260E3C1F36202220D4
:1000F0002F503D04247F0600207F000000000000F8
:08010000A89584DFFDCF0895EE
:02000004008278
:09000000000002FF00C40400012D
:02000004008575
:0600000030303100000069
:00000001FF
