:100000000BC06EC062C052C06BD08E708A30C9F710
:1000100088ED84BF90934100209A289A209A289ACC
:10002000219A299A019A039AC4EED0E84CD0CA3F8B
:10003000E9F798ED94BFF09300018E3061F480E30E
:1000400049D08AE247D08BE245D03DD000904000B5
:100050000092400003FC54C0D8E370E041D08E50C1
:10006000EDF7A89581E622D000E221D089930A9588
:10007000E1F7289A715081F088F7A0978881885815
:100080008981894949F77D818A819B81DC81C92FDA
:10009000863421F300F77883F0E183E00DE904BFB3
:1000A000808382818370E9F7D7CF8D912898E0E033
:1000B000F8E094E091A391E390A384A383A187FF48
:1000C000FDCF84A1089589916991F0DF862FEFDF3C
:1000D000289A0895B3E1A0E0E9DFE7DFE6DFE5DF96
:1000E00087E0F3CF2000213F2301254C260E3C3F23
:1000F00022202F503D04247F0600207F00000000B6
:08010000A89582DFFDCF0895F0
:02000004008278
:09000000000002FF00C40400012D
:02000004008575
:0600000030303100000069
:00000001FF
